:0400000084EF3CF05D
:1078F800F0EC3CF0C5801200F0EC3CF0C5841200BE
:10790800000EF86E000193EF3DF0026EF0EC3CF0D3
:1079180002C0C9FF1200000EC76E280EC66E000E08
:10792800C56E000ECB6E270EC86E1200036E7CEC7F
:107938003CF0D00E89EC3CF0035089EC3CF080EC34
:107948003CF01200036EF0EC3CF07CEC3CF07A0E5C
:1079580089EC3CF0000E89EC3CF0035089EC3CF0DB
:1079680080EC3CF01200036EF0EC3CF07CEC3CF058
:107978007A0E89EC3CF0400E89EC3CF0035089EC1F
:107988003CF080EC3CF01200056E210EA6EC3CF0B9
:107998000550A6EC3CF07F0EA6EC3CF0220EA6ECBF
:1079A8003CF00450A6EC3CF0070EA6EC3CF01200AC
:1079B800026EF0EC3CF0C586F0EC3CF0C9CF03F069
:1079C80002B0E9EF3CF0ECEF3CF0C58AEDEF3CF09B
:1079D800C59AC58803501200C7CF01F0050E0116DD
:1079E800D8A4F9EF3CF0FBEF3CF0F0EF3CF0C5CF4A
:1079F80001F01F0E0116D8A404EF3DF006EF3DF08C
:107A0800F0EF3CF012007CEC3CF0D10E89EC3CF03D
:107A1800000E046EC5BC13EF3DF015EF3DF01CEFF2
:107A28003DF0000EDCEC3CF0046E010EDCEC3CF0AA
:107A380080EC3CF004501200A80EA6EC3CF03F0E7F
:107A4800A6EC3CF0D30EA6EC3CF0000EA6EC3CF005
:107A5800400EA6EC3CF0A10EA6EC3CF0C80EA6EC3D
:107A68003CF0DA0EA6EC3CF0020EA6EC3CF0810EDF
:107A7800A6EC3CF07F0EA6EC3CF0A40EA6EC3CF085
:107A8800A60EA6EC3CF0D50EA6EC3CF0800EA6ECBB
:107A98003CF08D0EA6EC3CF0140EA6EC3CF0AF0EBC
:107AA800A6EC3CF012000A6E000E0D6E000E0C6E75
:107AB8000A50046E056AD89004360536D890043604
:107AC8000536D890043605367F0E0424066E7C0EE3
:107AD8000520076E0C5006260D500722000E0624BE
:107AE800086EFF0E0720096E08C0F6FF09C0F7FFF1
:107AF8000800F5CF0BF00B50B7EC3CF00C4A0D2A00
:107B08000DBE90EF3DF00D5009E1080E0C5CD8A0B9
:107B180090EF3DF092EF3DF05CEF3DF01200959054
:107B28008C80700ED3128FEC3CF020EC3DF0030EED
:107B3800046E200EC8EC3CF0020E9AEC3CF007EC08
:107B48003DF01C6E1C500F0B106E1C380F0B010BF8
:107B5800116E1150300F57EC3DF01050300F57ECAC
:107B68003DF03A0E57EC3DF0010E9AEC3CF007EC74
:107B78003DF01D6E1D500F0B126E1D380F0B070BBD
:107B8800136E1350300F57EC3DF01250300F57EC76
:107B98003DF03A0E57EC3DF0000E9AEC3CF007EC45
:107BA8003DF01E6E1E500F0B146E1E380F0B070B88
:107BB800156E1550300F57EC3DF01450300F57EC40
:107BC8003DF0040E046E200EC8EC3CF0040E9AEC56
:107BD8003CF007EC3DF01F6E1F500F0B166E1F3860
:107BE8000F0B030B176E1750300F57EC3DF0165064
:107BF800300F57EC3DF02F0E57EC3DF0050E9AEC88
:107C08003CF007EC3DF0206E20500F0B186E20382A
:107C18000F0B010B196E1950300F57EC3DF018502F
:107C2800300F57EC3DF02F0E57EC3DF0060E9AEC56
:107C38003CF007EC3DF0216E21500F0B1A6E2138F5
:107C48000F0B0F0B1B6E1B50300F57EC3DF01A50EB
:107C5800300F57EC3DF0290E0F6E960E0E6E7F0E0C
:107C6800E82EFED70E2EFCD70F2EFAD700009BEF7A
:107C78003DF000EF00F000000000000000000000F0
:107C88000000004F4F000000000707000007070032
:107C9800147F7F14147F7F0000242E6B6B3A120030
:107CA800006333180C66630000327F4D4D77720015
:107CB800000000040603010000001C3E63410000B0
:107CC800000041633E1C0000082A3E1C1C3E2A009E
:107CD8000008083E3E080800000080E06000000040
:107CE800000808080808080000000060600000009C
:107CF80000406030180C0600003E7F49457F3E007A
:107D08000040447F7F40400000627351494F460065
:107D180000226349497F360000181814167F7F0037
:107D280000276745457D3900003E7F49497B320081
:107D3800000303797D07030000367F49497F360039
:107D480000266F49497F3E000000002424000000FF
:107D5800000080E46400000000081C366341410014
:107D6800001414141414140000414163361C080054
:107D780000020351590F0600003E7F414D4F2E006F
:107D8800007C7E0B0B7E7C00007F7F49497F36009C
:107D9800003E7F4141632200007F7F41633E1C001B
:107DA800007F7F4949414100007F7F0909010100A7
:107DB800003E7F41497B3A00007F7F08087F7F00B3
:107DC8000000417F7F410000002060417F3F0100AB
:107DD800007F7F1C36634100007F7F4040404000A9
:107DE800007F7F060C067F00007F7F0E1C7F7F00D0
:107DF800003E7F41417F3E00007F7F09090F06005A
:107E0800001E3F21617F5E00007F7F19396F4600A9
:107E180000266F49497B32000001017F7F01010084
:107E2800003F7F40407F3F00001F3F60603F1F00D2
:107E3800007F7F3018307F000063771C1C77630059
:107E480000070F78780F0700006171594D4743000C
:107E58000041417F7F0000060C18306040000000A0
:107E6800007F7F414100000008047E040800008074
:107E780080808080808000000103060400000000EC
:107E880000207454547C7800007E7E484878300086
:107E980000387C444444000000307848487E7E0026
:107EA80000387C54545C18000000087C7E0A0A00E4
:107EB8000098BCA4A4FC7C00007E7E0808787000B2
:107EC8000000487A7A4000000000808080FA7A003A
:107ED800007E7E10386840000000427E7E40000030
:107EE800007C7C18381C7C00007C7C04047C7800B6
:107EF80000387C44447C380000FCFC24243C1800F6
:107F080000183C2424FCFC00007C7C04040C0800C1
:107F180000485C54547424000004043E7E44440029
:107F2800003C7C40407C7C00001C3C60603C1C00A9
:107F3800001C7C7038707C0000446C38386C44003D
:107F4800009CBCA0E07C3C00004464745C4C440091
:107F5800080876424200000000007E000000000091
:107F6800424276080800000000040204020000FFF4
:107F7800FFFFFFFFFFFFFF185C7E7F7E5C18000E8F
:107F88001F3F7E3F1F0E00000C4C73734C0C000803
:107F98001C3E7F3E1C080018242424242424242466
:107FA80024242424242424242424242424241818A1
:107FB8003C3C3C3C3C3C3C3C3C3C3C3C3C3C3C3CF9
:107FC8003C3C3C3C3C3C18040E1F040404F80000F4
:107FD800F80404041F0E04000406FF06040000064B
:107FE8000E1FFB1F0E060000060F090F06000000FB
:087FF8002060FF602000000082
:020000040030CA
:0E00000000285E3CFFD385FF0FC00FE00F40CD
:00000001FF
